{
  "_format": "hh-sol-artifact-1",
  "contractName": "MyEpicNFT",
  "sourceName": "contracts/MyEpicNFT.sol",
  "abi": [
    {
      "inputs": [],
      "stateMutability": "nonpayable",
      "type": "constructor"
    },
    {
      "anonymous": false,
      "inputs": [
        {
          "indexed": true,
          "internalType": "address",
          "name": "owner",
          "type": "address"
        },
        {
          "indexed": true,
          "internalType": "address",
          "name": "approved",
          "type": "address"
        },
        {
          "indexed": true,
          "internalType": "uint256",
          "name": "tokenId",
          "type": "uint256"
        }
      ],
      "name": "Approval",
      "type": "event"
    },
    {
      "anonymous": false,
      "inputs": [
        {
          "indexed": true,
          "internalType": "address",
          "name": "owner",
          "type": "address"
        },
        {
          "indexed": true,
          "internalType": "address",
          "name": "operator",
          "type": "address"
        },
        {
          "indexed": false,
          "internalType": "bool",
          "name": "approved",
          "type": "bool"
        }
      ],
      "name": "ApprovalForAll",
      "type": "event"
    },
    {
      "anonymous": false,
      "inputs": [
        {
          "indexed": false,
          "internalType": "address",
          "name": "sender",
          "type": "address"
        },
        {
          "indexed": false,
          "internalType": "uint256",
          "name": "tokenId",
          "type": "uint256"
        }
      ],
      "name": "NewEpicNFTMinted",
      "type": "event"
    },
    {
      "anonymous": false,
      "inputs": [
        {
          "indexed": true,
          "internalType": "address",
          "name": "from",
          "type": "address"
        },
        {
          "indexed": true,
          "internalType": "address",
          "name": "to",
          "type": "address"
        },
        {
          "indexed": true,
          "internalType": "uint256",
          "name": "tokenId",
          "type": "uint256"
        }
      ],
      "name": "Transfer",
      "type": "event"
    },
    {
      "inputs": [
        {
          "internalType": "address",
          "name": "to",
          "type": "address"
        },
        {
          "internalType": "uint256",
          "name": "tokenId",
          "type": "uint256"
        }
      ],
      "name": "approve",
      "outputs": [],
      "stateMutability": "nonpayable",
      "type": "function"
    },
    {
      "inputs": [
        {
          "internalType": "address",
          "name": "owner",
          "type": "address"
        }
      ],
      "name": "balanceOf",
      "outputs": [
        {
          "internalType": "uint256",
          "name": "",
          "type": "uint256"
        }
      ],
      "stateMutability": "view",
      "type": "function"
    },
    {
      "inputs": [
        {
          "internalType": "uint256",
          "name": "tokenId",
          "type": "uint256"
        }
      ],
      "name": "getApproved",
      "outputs": [
        {
          "internalType": "address",
          "name": "",
          "type": "address"
        }
      ],
      "stateMutability": "view",
      "type": "function"
    },
    {
      "inputs": [
        {
          "internalType": "address",
          "name": "owner",
          "type": "address"
        },
        {
          "internalType": "address",
          "name": "operator",
          "type": "address"
        }
      ],
      "name": "isApprovedForAll",
      "outputs": [
        {
          "internalType": "bool",
          "name": "",
          "type": "bool"
        }
      ],
      "stateMutability": "view",
      "type": "function"
    },
    {
      "inputs": [
        {
          "internalType": "string",
          "name": "name",
          "type": "string"
        },
        {
          "internalType": "string",
          "name": "description",
          "type": "string"
        },
        {
          "internalType": "string",
          "name": "imageUrl",
          "type": "string"
        }
      ],
      "name": "makeAnEpicNFT",
      "outputs": [],
      "stateMutability": "nonpayable",
      "type": "function"
    },
    {
      "inputs": [],
      "name": "name",
      "outputs": [
        {
          "internalType": "string",
          "name": "",
          "type": "string"
        }
      ],
      "stateMutability": "view",
      "type": "function"
    },
    {
      "inputs": [
        {
          "internalType": "uint256",
          "name": "tokenId",
          "type": "uint256"
        }
      ],
      "name": "ownerOf",
      "outputs": [
        {
          "internalType": "address",
          "name": "",
          "type": "address"
        }
      ],
      "stateMutability": "view",
      "type": "function"
    },
    {
      "inputs": [
        {
          "internalType": "address",
          "name": "from",
          "type": "address"
        },
        {
          "internalType": "address",
          "name": "to",
          "type": "address"
        },
        {
          "internalType": "uint256",
          "name": "tokenId",
          "type": "uint256"
        }
      ],
      "name": "safeTransferFrom",
      "outputs": [],
      "stateMutability": "nonpayable",
      "type": "function"
    },
    {
      "inputs": [
        {
          "internalType": "address",
          "name": "from",
          "type": "address"
        },
        {
          "internalType": "address",
          "name": "to",
          "type": "address"
        },
        {
          "internalType": "uint256",
          "name": "tokenId",
          "type": "uint256"
        },
        {
          "internalType": "bytes",
          "name": "data",
          "type": "bytes"
        }
      ],
      "name": "safeTransferFrom",
      "outputs": [],
      "stateMutability": "nonpayable",
      "type": "function"
    },
    {
      "inputs": [
        {
          "internalType": "address",
          "name": "operator",
          "type": "address"
        },
        {
          "internalType": "bool",
          "name": "approved",
          "type": "bool"
        }
      ],
      "name": "setApprovalForAll",
      "outputs": [],
      "stateMutability": "nonpayable",
      "type": "function"
    },
    {
      "inputs": [
        {
          "internalType": "bytes4",
          "name": "interfaceId",
          "type": "bytes4"
        }
      ],
      "name": "supportsInterface",
      "outputs": [
        {
          "internalType": "bool",
          "name": "",
          "type": "bool"
        }
      ],
      "stateMutability": "view",
      "type": "function"
    },
    {
      "inputs": [],
      "name": "symbol",
      "outputs": [
        {
          "internalType": "string",
          "name": "",
          "type": "string"
        }
      ],
      "stateMutability": "view",
      "type": "function"
    },
    {
      "inputs": [
        {
          "internalType": "uint256",
          "name": "tokenId",
          "type": "uint256"
        }
      ],
      "name": "tokenURI",
      "outputs": [
        {
          "internalType": "string",
          "name": "",
          "type": "string"
        }
      ],
      "stateMutability": "view",
      "type": "function"
    },
    {
      "inputs": [
        {
          "internalType": "address",
          "name": "from",
          "type": "address"
        },
        {
          "internalType": "address",
          "name": "to",
          "type": "address"
        },
        {
          "internalType": "uint256",
          "name": "tokenId",
          "type": "uint256"
        }
      ],
      "name": "transferFrom",
      "outputs": [],
      "stateMutability": "nonpayable",
      "type": "function"
    }
  ],
  "bytecode": "0x60806040523480156200001157600080fd5b506040518060400160405280600981526020017f5371756172654e465400000000000000000000000000000000000000000000008152506040518060400160405280600681526020017f5351554152450000000000000000000000000000000000000000000000000000815250816000908051906020019062000096929190620001cf565b508060019080519060200190620000af929190620001cf565b505050620000fd6040518060400160405280601e81526020017f54686973206973206d79204e465420636f6e74726163742e20576f61682100008152506200010360201b62000bc91760201c565b620003ac565b620001a3816040516024016200011a9190620002c0565b6040516020818303038152906040527f41304fac000000000000000000000000000000000000000000000000000000007bffffffffffffffffffffffffffffffffffffffffffffffffffffffff19166020820180517bffffffffffffffffffffffffffffffffffffffffffffffffffffffff8381831617835250505050620001a660201b60201c565b50565b60008151905060006a636f6e736f6c652e6c6f679050602083016000808483855afa5050505050565b828054620001dd9062000336565b90600052602060002090601f0160209004810192826200020157600085556200024d565b82601f106200021c57805160ff19168380011785556200024d565b828001600101855582156200024d579182015b828111156200024c5782518255916020019190600101906200022f565b5b5090506200025c919062000260565b5090565b5b808211156200027b57600081600090555060010162000261565b5090565b60006200028c82620002e4565b620002988185620002ef565b9350620002aa81856020860162000300565b620002b5816200039b565b840191505092915050565b60006020820190508181036000830152620002dc81846200027f565b905092915050565b600081519050919050565b600082825260208201905092915050565b60005b838110156200032057808201518184015260208101905062000303565b8381111562000330576000848401525b50505050565b600060028204905060018216806200034f57607f821691505b602082108114156200036657620003656200036c565b5b50919050565b7f4e487b7100000000000000000000000000000000000000000000000000000000600052602260045260246000fd5b6000601f19601f8301169050919050565b61308a80620003bc6000396000f3fe608060405234801561001057600080fd5b50600436106100ea5760003560e01c806370a082311161008c578063a612854611610066578063a61285461461025b578063b88d4fde14610277578063c87b56dd14610293578063e985e9c5146102c3576100ea565b806370a08231146101f157806395d89b4114610221578063a22cb4651461023f576100ea565b8063095ea7b3116100c8578063095ea7b31461016d57806323b872dd1461018957806342842e0e146101a55780636352211e146101c1576100ea565b806301ffc9a7146100ef57806306fdde031461011f578063081812fc1461013d575b600080fd5b61010960048036038101906101049190611fed565b6102f3565b6040516101169190612555565b60405180910390f35b6101276103d5565b6040516101349190612570565b60405180910390f35b610157600480360381019061015291906120d6565b610467565b60405161016491906124c5565b60405180910390f35b61018760048036038101906101829190611fb1565b6104ad565b005b6101a3600480360381019061019e9190611eab565b6105c5565b005b6101bf60048036038101906101ba9190611eab565b610625565b005b6101db60048036038101906101d691906120d6565b610645565b6040516101e891906124c5565b60405180910390f35b61020b60048036038101906102069190611e46565b6106f7565b6040516102189190612750565b60405180910390f35b6102296107af565b6040516102369190612570565b60405180910390f35b61025960048036038101906102549190611f75565b610841565b005b6102756004803603810190610270919061203f565b610857565b005b610291600480360381019061028c9190611efa565b6109c0565b005b6102ad60048036038101906102a891906120d6565b610a22565b6040516102ba9190612570565b60405180910390f35b6102dd60048036038101906102d89190611e6f565b610b35565b6040516102ea9190612555565b60405180910390f35b60007f80ac58cd000000000000000000000000000000000000000000000000000000007bffffffffffffffffffffffffffffffffffffffffffffffffffffffff1916827bffffffffffffffffffffffffffffffffffffffffffffffffffffffff191614806103be57507f5b5e139f000000000000000000000000000000000000000000000000000000007bffffffffffffffffffffffffffffffffffffffffffffffffffffffff1916827bffffffffffffffffffffffffffffffffffffffffffffffffffffffff1916145b806103ce57506103cd82610c62565b5b9050919050565b6060600080546103e490612a00565b80601f016020809104026020016040519081016040528092919081815260200182805461041090612a00565b801561045d5780601f106104325761010080835404028352916020019161045d565b820191906000526020600020905b81548152906001019060200180831161044057829003601f168201915b5050505050905090565b600061047282610ccc565b6004600083815260200190815260200160002060009054906101000a900473ffffffffffffffffffffffffffffffffffffffff169050919050565b60006104b882610645565b90508073ffffffffffffffffffffffffffffffffffffffff168373ffffffffffffffffffffffffffffffffffffffff161415610529576040517f08c379a000000000000000000000000000000000000000000000000000000000815260040161052090612710565b60405180910390fd5b8073ffffffffffffffffffffffffffffffffffffffff16610548610d17565b73ffffffffffffffffffffffffffffffffffffffff161480610577575061057681610571610d17565b610b35565b5b6105b6576040517f08c379a00000000000000000000000000000000000000000000000000000000081526004016105ad906126b0565b60405180910390fd5b6105c08383610d1f565b505050565b6105d66105d0610d17565b82610dd8565b610615576040517f08c379a000000000000000000000000000000000000000000000000000000000815260040161060c90612730565b60405180910390fd5b610620838383610e6d565b505050565b610640838383604051806020016040528060008152506109c0565b505050565b6000806002600084815260200190815260200160002060009054906101000a900473ffffffffffffffffffffffffffffffffffffffff169050600073ffffffffffffffffffffffffffffffffffffffff168173ffffffffffffffffffffffffffffffffffffffff1614156106ee576040517f08c379a00000000000000000000000000000000000000000000000000000000081526004016106e5906126f0565b60405180910390fd5b80915050919050565b60008073ffffffffffffffffffffffffffffffffffffffff168273ffffffffffffffffffffffffffffffffffffffff161415610768576040517f08c379a000000000000000000000000000000000000000000000000000000000815260040161075f90612670565b60405180910390fd5b600360008373ffffffffffffffffffffffffffffffffffffffff1673ffffffffffffffffffffffffffffffffffffffff168152602001908152602001600020549050919050565b6060600180546107be90612a00565b80601f01602080910402602001604051908101604052809291908181526020018280546107ea90612a00565b80156108375780601f1061080c57610100808354040283529160200191610837565b820191906000526020600020905b81548152906001019060200180831161081a57829003601f168201915b5050505050905090565b61085361084c610d17565b83836110d4565b5050565b60006108636007611241565b9050600061089385858560405160200161087f93929190612446565b60405160208183030381529060405261124f565b90506000816040516020016108a891906124a3565b60405160208183030381529060405290506108f76040518060400160405280601581526020017f0a2d2d2d2d2d2d2d2d2d2d2d2d2d2d2d2d2d2d2d2d0000000000000000000000815250610bc9565b61090081610bc9565b61093e6040518060400160405280601581526020017f2d2d2d2d2d2d2d2d2d2d2d2d2d2d2d2d2d2d2d2d0a0000000000000000000000815250610bc9565b610948338461140d565b610952838261142b565b61095c600761149f565b7febb98688741ffa4c7589bf325de30cf7becb63de567842e1ccdb6cb949fdc82c338460405161098d92919061252c565b60405180910390a16109b8604051806060016040528060258152602001612ff06025913984336114b5565b505050505050565b6109d16109cb610d17565b83610dd8565b610a10576040517f08c379a0000000000000000000000000000000000000000000000000000000008152600401610a0790612730565b60405180910390fd5b610a1c84848484611554565b50505050565b6060610a2d82610ccc565b6000600660008481526020019081526020016000208054610a4d90612a00565b80601f0160208091040260200160405190810160405280929190818152602001828054610a7990612a00565b8015610ac65780601f10610a9b57610100808354040283529160200191610ac6565b820191906000526020600020905b815481529060010190602001808311610aa957829003601f168201915b505050505090506000610ad76115b0565b9050600081511415610aed578192505050610b30565b600082511115610b22578082604051602001610b0a929190612422565b60405160208183030381529060405292505050610b30565b610b2b846115c7565b925050505b919050565b6000600560008473ffffffffffffffffffffffffffffffffffffffff1673ffffffffffffffffffffffffffffffffffffffff16815260200190815260200160002060008373ffffffffffffffffffffffffffffffffffffffff1673ffffffffffffffffffffffffffffffffffffffff16815260200190815260200160002060009054906101000a900460ff16905092915050565b610c5f81604051602401610bdd9190612570565b6040516020818303038152906040527f41304fac000000000000000000000000000000000000000000000000000000007bffffffffffffffffffffffffffffffffffffffffffffffffffffffff19166020820180517bffffffffffffffffffffffffffffffffffffffffffffffffffffffff838183161783525050505061162f565b50565b60007f01ffc9a7000000000000000000000000000000000000000000000000000000007bffffffffffffffffffffffffffffffffffffffffffffffffffffffff1916827bffffffffffffffffffffffffffffffffffffffffffffffffffffffff1916149050919050565b610cd581611658565b610d14576040517f08c379a0000000000000000000000000000000000000000000000000000000008152600401610d0b906126f0565b60405180910390fd5b50565b600033905090565b816004600083815260200190815260200160002060006101000a81548173ffffffffffffffffffffffffffffffffffffffff021916908373ffffffffffffffffffffffffffffffffffffffff160217905550808273ffffffffffffffffffffffffffffffffffffffff16610d9283610645565b73ffffffffffffffffffffffffffffffffffffffff167f8c5be1e5ebec7d5bd14f71427d1e84f3dd0314c0f7b2291e5b200ac8c7c3b92560405160405180910390a45050565b600080610de483610645565b90508073ffffffffffffffffffffffffffffffffffffffff168473ffffffffffffffffffffffffffffffffffffffff161480610e265750610e258185610b35565b5b80610e6457508373ffffffffffffffffffffffffffffffffffffffff16610e4c84610467565b73ffffffffffffffffffffffffffffffffffffffff16145b91505092915050565b8273ffffffffffffffffffffffffffffffffffffffff16610e8d82610645565b73ffffffffffffffffffffffffffffffffffffffff1614610ee3576040517f08c379a0000000000000000000000000000000000000000000000000000000008152600401610eda906125f0565b60405180910390fd5b600073ffffffffffffffffffffffffffffffffffffffff168273ffffffffffffffffffffffffffffffffffffffff161415610f53576040517f08c379a0000000000000000000000000000000000000000000000000000000008152600401610f4a90612630565b60405180910390fd5b610f5e8383836116c4565b610f69600082610d1f565b6001600360008573ffffffffffffffffffffffffffffffffffffffff1673ffffffffffffffffffffffffffffffffffffffff1681526020019081526020016000206000828254610fb99190612916565b925050819055506001600360008473ffffffffffffffffffffffffffffffffffffffff1673ffffffffffffffffffffffffffffffffffffffff16815260200190815260200160002060008282546110109190612835565b92505081905550816002600083815260200190815260200160002060006101000a81548173ffffffffffffffffffffffffffffffffffffffff021916908373ffffffffffffffffffffffffffffffffffffffff160217905550808273ffffffffffffffffffffffffffffffffffffffff168473ffffffffffffffffffffffffffffffffffffffff167fddf252ad1be2c89b69c2b068fc378daa952ba7f163c4a11628f55a4df523b3ef60405160405180910390a46110cf8383836116c9565b505050565b8173ffffffffffffffffffffffffffffffffffffffff168373ffffffffffffffffffffffffffffffffffffffff161415611143576040517f08c379a000000000000000000000000000000000000000000000000000000000815260040161113a90612650565b60405180910390fd5b80600560008573ffffffffffffffffffffffffffffffffffffffff1673ffffffffffffffffffffffffffffffffffffffff16815260200190815260200160002060008473ffffffffffffffffffffffffffffffffffffffff1673ffffffffffffffffffffffffffffffffffffffff16815260200190815260200160002060006101000a81548160ff0219169083151502179055508173ffffffffffffffffffffffffffffffffffffffff168373ffffffffffffffffffffffffffffffffffffffff167f17307eab39ab6107e8899845ad3d59bd9653f200f220920489ca2b5937696c31836040516112349190612555565b60405180910390a3505050565b600081600001549050919050565b606060008251905060008114156112785760405180602001604052806000815250915050611408565b600060036002836112899190612835565b611293919061288b565b600461129f91906128bc565b905060006020826112b09190612835565b67ffffffffffffffff8111156112ef577f4e487b7100000000000000000000000000000000000000000000000000000000600052604160045260246000fd5b6040519080825280601f01601f1916602001820160405280156113215781602001600182028036833780820191505090505b5090506000604051806060016040528060408152602001613015604091399050600181016020830160005b868110156113c55760038101905062ffffff818a015116603f8160121c168401518060081b905060ff603f83600c1c1686015116810190508060081b905060ff603f8360061c1686015116810190508060081b905060ff603f831686015116810190508060e01b9050808452600484019350505061134c565b5060038606600181146113df57600281146113ef576113fa565b613d3d60f01b60028303526113fa565b603d60f81b60018303525b508484525050819450505050505b919050565b6114278282604051806020016040528060008152506116ce565b5050565b61143482611658565b611473576040517f08c379a000000000000000000000000000000000000000000000000000000000815260040161146a90612690565b60405180910390fd5b8060066000848152602001908152602001600020908051906020019061149a929190611c6a565b505050565b6001816000016000828254019250508190555050565b61154f8383836040516024016114cd93929190612592565b6040516020818303038152906040527fe3849f79000000000000000000000000000000000000000000000000000000007bffffffffffffffffffffffffffffffffffffffffffffffffffffffff19166020820180517bffffffffffffffffffffffffffffffffffffffffffffffffffffffff838183161783525050505061162f565b505050565b61155f848484610e6d565b61156b84848484611729565b6115aa576040517f08c379a00000000000000000000000000000000000000000000000000000000081526004016115a1906125d0565b60405180910390fd5b50505050565b606060405180602001604052806000815250905090565b60606115d282610ccc565b60006115dc6115b0565b905060008151116115fc5760405180602001604052806000815250611627565b80611606846118c0565b604051602001611617929190612422565b6040516020818303038152906040525b915050919050565b60008151905060006a636f6e736f6c652e6c6f679050602083016000808483855afa5050505050565b60008073ffffffffffffffffffffffffffffffffffffffff166002600084815260200190815260200160002060009054906101000a900473ffffffffffffffffffffffffffffffffffffffff1673ffffffffffffffffffffffffffffffffffffffff1614159050919050565b505050565b505050565b6116d88383611a6d565b6116e56000848484611729565b611724576040517f08c379a000000000000000000000000000000000000000000000000000000000815260040161171b906125d0565b60405180910390fd5b505050565b600061174a8473ffffffffffffffffffffffffffffffffffffffff16611c47565b156118b3578373ffffffffffffffffffffffffffffffffffffffff1663150b7a02611773610d17565b8786866040518563ffffffff1660e01b815260040161179594939291906124e0565b602060405180830381600087803b1580156117af57600080fd5b505af19250505080156117e057506040513d601f19601f820116820180604052508101906117dd9190612016565b60015b611863573d8060008114611810576040519150601f19603f3d011682016040523d82523d6000602084013e611815565b606091505b5060008151141561185b576040517f08c379a0000000000000000000000000000000000000000000000000000000008152600401611852906125d0565b60405180910390fd5b805181602001fd5b63150b7a0260e01b7bffffffffffffffffffffffffffffffffffffffffffffffffffffffff1916817bffffffffffffffffffffffffffffffffffffffffffffffffffffffff1916149150506118b8565b600190505b949350505050565b60606000821415611908576040518060400160405280600181526020017f30000000000000000000000000000000000000000000000000000000000000008152509050611a68565b600082905060005b6000821461193a57808061192390612a63565b915050600a82611933919061288b565b9150611910565b60008167ffffffffffffffff81111561197c577f4e487b7100000000000000000000000000000000000000000000000000000000600052604160045260246000fd5b6040519080825280601f01601f1916602001820160405280156119ae5781602001600182028036833780820191505090505b5090505b60008514611a61576001826119c79190612916565b9150600a856119d69190612aac565b60306119e29190612835565b60f81b818381518110611a1e577f4e487b7100000000000000000000000000000000000000000000000000000000600052603260045260246000fd5b60200101907effffffffffffffffffffffffffffffffffffffffffffffffffffffffffffff1916908160001a905350600a85611a5a919061288b565b94506119b2565b8093505050505b919050565b600073ffffffffffffffffffffffffffffffffffffffff168273ffffffffffffffffffffffffffffffffffffffff161415611add576040517f08c379a0000000000000000000000000000000000000000000000000000000008152600401611ad4906126d0565b60405180910390fd5b611ae681611658565b15611b26576040517f08c379a0000000000000000000000000000000000000000000000000000000008152600401611b1d90612610565b60405180910390fd5b611b32600083836116c4565b6001600360008473ffffffffffffffffffffffffffffffffffffffff1673ffffffffffffffffffffffffffffffffffffffff1681526020019081526020016000206000828254611b829190612835565b92505081905550816002600083815260200190815260200160002060006101000a81548173ffffffffffffffffffffffffffffffffffffffff021916908373ffffffffffffffffffffffffffffffffffffffff160217905550808273ffffffffffffffffffffffffffffffffffffffff16600073ffffffffffffffffffffffffffffffffffffffff167fddf252ad1be2c89b69c2b068fc378daa952ba7f163c4a11628f55a4df523b3ef60405160405180910390a4611c43600083836116c9565b5050565b6000808273ffffffffffffffffffffffffffffffffffffffff163b119050919050565b828054611c7690612a00565b90600052602060002090601f016020900481019282611c985760008555611cdf565b82601f10611cb157805160ff1916838001178555611cdf565b82800160010185558215611cdf579182015b82811115611cde578251825591602001919060010190611cc3565b5b509050611cec9190611cf0565b5090565b5b80821115611d09576000816000905550600101611cf1565b5090565b6000611d20611d1b84612790565b61276b565b905082815260208101848484011115611d3857600080fd5b611d438482856129be565b509392505050565b6000611d5e611d59846127c1565b61276b565b905082815260208101848484011115611d7657600080fd5b611d818482856129be565b509392505050565b600081359050611d9881612f93565b92915050565b600081359050611dad81612faa565b92915050565b600081359050611dc281612fc1565b92915050565b600081519050611dd781612fc1565b92915050565b600082601f830112611dee57600080fd5b8135611dfe848260208601611d0d565b91505092915050565b600082601f830112611e1857600080fd5b8135611e28848260208601611d4b565b91505092915050565b600081359050611e4081612fd8565b92915050565b600060208284031215611e5857600080fd5b6000611e6684828501611d89565b91505092915050565b60008060408385031215611e8257600080fd5b6000611e9085828601611d89565b9250506020611ea185828601611d89565b9150509250929050565b600080600060608486031215611ec057600080fd5b6000611ece86828701611d89565b9350506020611edf86828701611d89565b9250506040611ef086828701611e31565b9150509250925092565b60008060008060808587031215611f1057600080fd5b6000611f1e87828801611d89565b9450506020611f2f87828801611d89565b9350506040611f4087828801611e31565b925050606085013567ffffffffffffffff811115611f5d57600080fd5b611f6987828801611ddd565b91505092959194509250565b60008060408385031215611f8857600080fd5b6000611f9685828601611d89565b9250506020611fa785828601611d9e565b9150509250929050565b60008060408385031215611fc457600080fd5b6000611fd285828601611d89565b9250506020611fe385828601611e31565b9150509250929050565b600060208284031215611fff57600080fd5b600061200d84828501611db3565b91505092915050565b60006020828403121561202857600080fd5b600061203684828501611dc8565b91505092915050565b60008060006060848603121561205457600080fd5b600084013567ffffffffffffffff81111561206e57600080fd5b61207a86828701611e07565b935050602084013567ffffffffffffffff81111561209757600080fd5b6120a386828701611e07565b925050604084013567ffffffffffffffff8111156120c057600080fd5b6120cc86828701611e07565b9150509250925092565b6000602082840312156120e857600080fd5b60006120f684828501611e31565b91505092915050565b6121088161294a565b82525050565b6121178161295c565b82525050565b6000612128826127f2565b6121328185612808565b93506121428185602086016129cd565b61214b81612b99565b840191505092915050565b6000612161826127fd565b61216b8185612819565b935061217b8185602086016129cd565b61218481612b99565b840191505092915050565b600061219a826127fd565b6121a4818561282a565b93506121b48185602086016129cd565b80840191505092915050565b60006121cd60138361282a565b91506121d882612baa565b601382019050919050565b60006121f0603283612819565b91506121fb82612bd3565b604082019050919050565b6000612213602583612819565b915061221e82612c22565b604082019050919050565b6000612236601c83612819565b915061224182612c71565b602082019050919050565b6000612259602483612819565b915061226482612c9a565b604082019050919050565b600061227c601983612819565b915061228782612ce9565b602082019050919050565b600061229f602983612819565b91506122aa82612d12565b604082019050919050565b60006122c2602e83612819565b91506122cd82612d61565b604082019050919050565b60006122e560028361282a565b91506122f082612db0565b600282019050919050565b6000612308603e83612819565b915061231382612dd9565b604082019050919050565b600061232b602083612819565b915061233682612e28565b602082019050919050565b600061234e600d8361282a565b915061235982612e51565b600d82019050919050565b6000612371600a8361282a565b915061237c82612e7a565b600a82019050919050565b6000612394601883612819565b915061239f82612ea3565b602082019050919050565b60006123b7602183612819565b91506123c282612ecc565b604082019050919050565b60006123da601d8361282a565b91506123e582612f1b565b601d82019050919050565b60006123fd602e83612819565b915061240882612f44565b604082019050919050565b61241c816129b4565b82525050565b600061242e828561218f565b915061243a828461218f565b91508190509392505050565b600061245182612364565b915061245d828661218f565b9150612468826121c0565b9150612474828561218f565b915061247f82612341565b915061248b828461218f565b9150612496826122d8565b9150819050949350505050565b60006124ae826123cd565b91506124ba828461218f565b915081905092915050565b60006020820190506124da60008301846120ff565b92915050565b60006080820190506124f560008301876120ff565b61250260208301866120ff565b61250f6040830185612413565b8181036060830152612521818461211d565b905095945050505050565b600060408201905061254160008301856120ff565b61254e6020830184612413565b9392505050565b600060208201905061256a600083018461210e565b92915050565b6000602082019050818103600083015261258a8184612156565b905092915050565b600060608201905081810360008301526125ac8186612156565b90506125bb6020830185612413565b6125c860408301846120ff565b949350505050565b600060208201905081810360008301526125e9816121e3565b9050919050565b6000602082019050818103600083015261260981612206565b9050919050565b6000602082019050818103600083015261262981612229565b9050919050565b600060208201905081810360008301526126498161224c565b9050919050565b600060208201905081810360008301526126698161226f565b9050919050565b6000602082019050818103600083015261268981612292565b9050919050565b600060208201905081810360008301526126a9816122b5565b9050919050565b600060208201905081810360008301526126c9816122fb565b9050919050565b600060208201905081810360008301526126e98161231e565b9050919050565b6000602082019050818103600083015261270981612387565b9050919050565b60006020820190508181036000830152612729816123aa565b9050919050565b60006020820190508181036000830152612749816123f0565b9050919050565b60006020820190506127656000830184612413565b92915050565b6000612775612786565b90506127818282612a32565b919050565b6000604051905090565b600067ffffffffffffffff8211156127ab576127aa612b6a565b5b6127b482612b99565b9050602081019050919050565b600067ffffffffffffffff8211156127dc576127db612b6a565b5b6127e582612b99565b9050602081019050919050565b600081519050919050565b600081519050919050565b600082825260208201905092915050565b600082825260208201905092915050565b600081905092915050565b6000612840826129b4565b915061284b836129b4565b9250827fffffffffffffffffffffffffffffffffffffffffffffffffffffffffffffffff038211156128805761287f612add565b5b828201905092915050565b6000612896826129b4565b91506128a1836129b4565b9250826128b1576128b0612b0c565b5b828204905092915050565b60006128c7826129b4565b91506128d2836129b4565b9250817fffffffffffffffffffffffffffffffffffffffffffffffffffffffffffffffff048311821515161561290b5761290a612add565b5b828202905092915050565b6000612921826129b4565b915061292c836129b4565b92508282101561293f5761293e612add565b5b828203905092915050565b600061295582612994565b9050919050565b60008115159050919050565b60007fffffffff0000000000000000000000000000000000000000000000000000000082169050919050565b600073ffffffffffffffffffffffffffffffffffffffff82169050919050565b6000819050919050565b82818337600083830152505050565b60005b838110156129eb5780820151818401526020810190506129d0565b838111156129fa576000848401525b50505050565b60006002820490506001821680612a1857607f821691505b60208210811415612a2c57612a2b612b3b565b5b50919050565b612a3b82612b99565b810181811067ffffffffffffffff82111715612a5a57612a59612b6a565b5b80604052505050565b6000612a6e826129b4565b91507fffffffffffffffffffffffffffffffffffffffffffffffffffffffffffffffff821415612aa157612aa0612add565b5b600182019050919050565b6000612ab7826129b4565b9150612ac2836129b4565b925082612ad257612ad1612b0c565b5b828206905092915050565b7f4e487b7100000000000000000000000000000000000000000000000000000000600052601160045260246000fd5b7f4e487b7100000000000000000000000000000000000000000000000000000000600052601260045260246000fd5b7f4e487b7100000000000000000000000000000000000000000000000000000000600052602260045260246000fd5b7f4e487b7100000000000000000000000000000000000000000000000000000000600052604160045260246000fd5b6000601f19601f8301169050919050565b7f222c20226465736372697074696f6e223a202200000000000000000000000000600082015250565b7f4552433732313a207472616e7366657220746f206e6f6e20455243373231526560008201527f63656976657220696d706c656d656e7465720000000000000000000000000000602082015250565b7f4552433732313a207472616e736665722066726f6d20696e636f72726563742060008201527f6f776e6572000000000000000000000000000000000000000000000000000000602082015250565b7f4552433732313a20746f6b656e20616c7265616479206d696e74656400000000600082015250565b7f4552433732313a207472616e7366657220746f20746865207a65726f2061646460008201527f7265737300000000000000000000000000000000000000000000000000000000602082015250565b7f4552433732313a20617070726f766520746f2063616c6c657200000000000000600082015250565b7f4552433732313a2061646472657373207a65726f206973206e6f74206120766160008201527f6c6964206f776e65720000000000000000000000000000000000000000000000602082015250565b7f45524337323155524953746f726167653a2055524920736574206f66206e6f6e60008201527f6578697374656e7420746f6b656e000000000000000000000000000000000000602082015250565b7f227d000000000000000000000000000000000000000000000000000000000000600082015250565b7f4552433732313a20617070726f76652063616c6c6572206973206e6f7420746f60008201527f6b656e206f776e6572206e6f7220617070726f76656420666f7220616c6c0000602082015250565b7f4552433732313a206d696e7420746f20746865207a65726f2061646472657373600082015250565b7f222c2022696d616765223a202200000000000000000000000000000000000000600082015250565b7f7b226e616d65223a202200000000000000000000000000000000000000000000600082015250565b7f4552433732313a20696e76616c696420746f6b656e2049440000000000000000600082015250565b7f4552433732313a20617070726f76616c20746f2063757272656e74206f776e6560008201527f7200000000000000000000000000000000000000000000000000000000000000602082015250565b7f646174613a6170706c69636174696f6e2f6a736f6e3b6261736536342c000000600082015250565b7f4552433732313a2063616c6c6572206973206e6f7420746f6b656e206f776e6560008201527f72206e6f7220617070726f766564000000000000000000000000000000000000602082015250565b612f9c8161294a565b8114612fa757600080fd5b50565b612fb38161295c565b8114612fbe57600080fd5b50565b612fca81612968565b8114612fd557600080fd5b50565b612fe1816129b4565b8114612fec57600080fd5b5056fe416e204e465420772f20494420257320686173206265656e206d696e74656420746f2025734142434445464748494a4b4c4d4e4f505152535455565758595a6162636465666768696a6b6c6d6e6f707172737475767778797a303132333435363738392b2fa264697066735822122083a865835fc63f288fbb385548e303b233b64255144c314babb7152e2a8041b464736f6c63430008010033",
  "linkReferences": {},
  "deployedLinkReferences": {}
}